{
  "contractName": "Caller",
  "abi": [
    {
      "inputs": [
        {
          "internalType": "address",
          "name": "_calleeAddress",
          "type": "address"
        }
      ],
      "stateMutability": "nonpayable",
      "type": "constructor"
    },
    {
      "inputs": [],
      "name": "calleeAddress",
      "outputs": [
        {
          "internalType": "address",
          "name": "",
          "type": "address"
        }
      ],
      "stateMutability": "view",
      "type": "function"
    },
    {
      "inputs": [],
      "name": "store",
      "outputs": [],
      "stateMutability": "nonpayable",
      "type": "function"
    },
    {
      "inputs": [],
      "name": "get",
      "outputs": [
        {
          "internalType": "uint256",
          "name": "",
          "type": "uint256"
        }
      ],
      "stateMutability": "view",
      "type": "function"
    }
  ],
  "bytecode": "0x608060405234801561001057600080fd5b5060405161022f38038061022f8339818101604052602081101561003357600080fd5b5051600080546001600160a01b039283166001600160a01b0319918216179182905560018054909116919092161790556101bd806100726000396000f3fe608060405234801561001057600080fd5b50600436106100415760003560e01c8063643dfbf9146100465780636d4ce63c1461006a578063975057e714610084575b600080fd5b61004e61008e565b604080516001600160a01b039092168252519081900360200190f35b61007261009d565b60408051918252519081900360200190f35b61008c610120565b005b6000546001600160a01b031681565b600080600160009054906101000a90046001600160a01b03166001600160a01b03166319eb4a906040518163ffffffff1660e01b815260040160206040518083038186803b1580156100ee57600080fd5b505afa158015610102573d6000803e3d6000fd5b505050506040513d602081101561011857600080fd5b505191505090565b60015460408051633910d13560e11b81526064600482015290516001600160a01b0390921691637221a26a9160248082019260009290919082900301818387803b15801561016d57600080fd5b505af1158015610181573d6000803e3d6000fd5b5050505056fea2646970667358221220fa057476f4e7156092fa6d3127014e77685324e23579b5af1ef0e51729c14aeb64736f6c63430006060033",
  "source": "pragma solidity >0.5.0<=0.7.0;\r\n\r\nimport './ICallee.sol';\r\n\r\ncontract Caller {\r\n\r\n  address public calleeAddress;\r\n  ICallee c;\r\n\r\n  constructor(address _calleeAddress) public {\r\n\r\n    calleeAddress = _calleeAddress;\r\n    c = ICallee(calleeAddress);\r\n  }\r\n\r\n\r\n\r\n  function store() public {\r\n//    Callee c = Callee(calleeAddress);\r\n    c.storeValue(100);\r\n  }\r\n\r\n  function get() public view returns(uint)  {\r\n\r\n    uint values = c.getValues();\r\n    return uint(values);\r\n  }\r\n\r\n}\r\n\r\n\r\n\r\n\r\n",
  "sourcePath": "C:\\Users\\Mahe\\gitfunded-web\\GIPS\\GIP-001\\example\\contracts\\Caller.sol",
  "compiler": {
    "name": "solc",
    "version": "0.6.6+commit.6c089d02.Emscripten.clang"
  },
  "schemaVersion": "3.0.23",
  "updatedAt": "2020-04-30T15:04:39.715Z",
  "devdoc": {
    "methods": {}
  },
  "userdoc": {
    "methods": {}
  }
}