{
  "contractName": "Callee",
  "abi": [
    {
      "inputs": [
        {
          "internalType": "uint256",
          "name": "",
          "type": "uint256"
        }
      ],
      "name": "values",
      "outputs": [
        {
          "internalType": "uint256",
          "name": "",
          "type": "uint256"
        }
      ],
      "stateMutability": "view",
      "type": "function",
      "constant": true
    },
    {
      "inputs": [
        {
          "internalType": "uint256",
          "name": "value",
          "type": "uint256"
        }
      ],
      "name": "storeValue",
      "outputs": [],
      "stateMutability": "nonpayable",
      "type": "function"
    },
    {
      "inputs": [],
      "name": "getValues",
      "outputs": [
        {
          "internalType": "uint256",
          "name": "",
          "type": "uint256"
        }
      ],
      "stateMutability": "view",
      "type": "function",
      "constant": true
    }
  ],
  "bytecode": "0x608060405234801561001057600080fd5b5061011a806100206000396000f3fe6080604052348015600f57600080fd5b5060043610603c5760003560e01c806319eb4a901460415780635e383d211460595780637221a26a146073575b600080fd5b6047608f565b60408051918252519081900360200190f35b604760048036036020811015606d57600080fd5b50356095565b608d60048036036020811015608757600080fd5b503560b2565b005b60005490565b6000818154811060a157fe5b600091825260209091200154905081565b600080546001810182559080527f290decd9548b62a8d60345a988386fc84ba6bc95484008f6362f93160ef3e563015556fea2646970667358221220e83b5a62e2c7264d2724ae30cb9d0b97d8c7953c33cc5a79ee10ad5ec806eb4d64736f6c63430006060033",
  "source": "pragma solidity >0.5.0<=0.7.0;\r\n\r\ncontract Callee {\r\n  uint[] public values;\r\n\r\n  function storeValue(uint value) public{\r\n    values.push(value);\r\n  }\r\n  function getValues() view public returns(uint) {\r\n    return values.length;\r\n  }\r\n}\r\n",
  "sourcePath": "C:\\Users\\Mahe\\gitfunded-web\\GIPS\\GIP-001\\example\\contracts\\Callee.sol",
  "compiler": {
    "name": "solc",
    "version": "0.6.6+commit.6c089d02.Emscripten.clang"
  },
  "schemaVersion": "3.0.23",
  "updatedAt": "2020-04-27T05:46:44.275Z",
  "networkType": "ethereum",
  "devdoc": {
    "methods": {}
  },
  "userdoc": {
    "methods": {}
  }
}