{
  "contractName": "Migrations",
  "abi": [
    {
      "inputs": [],
      "stateMutability": "nonpayable",
      "type": "constructor"
    },
    {
      "inputs": [],
      "name": "last_completed_migration",
      "outputs": [
        {
          "internalType": "uint256",
          "name": "",
          "type": "uint256"
        }
      ],
      "stateMutability": "view",
      "type": "function"
    },
    {
      "inputs": [],
      "name": "owner",
      "outputs": [
        {
          "internalType": "address",
          "name": "",
          "type": "address"
        }
      ],
      "stateMutability": "view",
      "type": "function"
    },
    {
      "inputs": [
        {
          "internalType": "uint256",
          "name": "completed",
          "type": "uint256"
        }
      ],
      "name": "setCompleted",
      "outputs": [],
      "stateMutability": "nonpayable",
      "type": "function"
    }
  ],
  "bytecode": "0x608060405234801561001057600080fd5b50600080546001600160a01b0319163317905560fd806100316000396000f3fe6080604052348015600f57600080fd5b5060043610603c5760003560e01c8063445df0ac1460415780638da5cb5b146059578063fdacd57614607b575b600080fd5b60476097565b60408051918252519081900360200190f35b605f609d565b604080516001600160a01b039092168252519081900360200190f35b609560048036036020811015608f57600080fd5b503560ac565b005b60015481565b6000546001600160a01b031681565b6000546001600160a01b031633141560c45760018190555b5056fea264697066735822122064b91419868ee0bf33a949123430325e56f733d6aa444fe2a6695e702a97f45e64736f6c63430006060033",
  "source": "pragma solidity >=0.4.21 <0.7.0;\r\n\r\ncontract Migrations {\r\n  address public owner;\r\n  uint public last_completed_migration;\r\n\r\n  constructor() public {\r\n    owner = msg.sender;\r\n  }\r\n\r\n  modifier restricted() {\r\n    if (msg.sender == owner) _;\r\n  }\r\n\r\n  function setCompleted(uint completed) public restricted {\r\n    last_completed_migration = completed;\r\n  }\r\n}\r\n",
  "sourcePath": "C:\\Users\\Mahe\\gitfunded-web\\GIPS\\GIP-002\\example\\contracts\\Migrations.sol",
  "compiler": {
    "name": "solc",
    "version": "0.6.6+commit.6c089d02.Emscripten.clang"
  },
  "schemaVersion": "3.0.23",
  "updatedAt": "2020-05-01T08:06:09.454Z",
  "devdoc": {
    "methods": {}
  },
  "userdoc": {
    "methods": {}
  }
}