{
  "contractName": "voting",
  "abi": [
    {
      "inputs": [],
      "name": "PCT_BASE",
      "outputs": [
        {
          "internalType": "uint256",
          "name": "",
          "type": "uint256"
        }
      ],
      "stateMutability": "view",
      "type": "function"
    },
    {
      "inputs": [],
      "name": "minAcceptQuorumPct",
      "outputs": [
        {
          "internalType": "uint256",
          "name": "",
          "type": "uint256"
        }
      ],
      "stateMutability": "view",
      "type": "function"
    },
    {
      "inputs": [],
      "name": "supportRequiredPct",
      "outputs": [
        {
          "internalType": "uint256",
          "name": "",
          "type": "uint256"
        }
      ],
      "stateMutability": "view",
      "type": "function"
    },
    {
      "inputs": [],
      "name": "voteTime",
      "outputs": [
        {
          "internalType": "uint256",
          "name": "",
          "type": "uint256"
        }
      ],
      "stateMutability": "view",
      "type": "function"
    },
    {
      "inputs": [],
      "name": "votesLength",
      "outputs": [
        {
          "internalType": "uint256",
          "name": "",
          "type": "uint256"
        }
      ],
      "stateMutability": "view",
      "type": "function"
    },
    {
      "inputs": [
        {
          "internalType": "uint256",
          "name": "_supportRequiredPct",
          "type": "uint256"
        },
        {
          "internalType": "uint256",
          "name": "_minAcceptQuorumPct",
          "type": "uint256"
        },
        {
          "internalType": "uint256",
          "name": "_voteTime",
          "type": "uint256"
        }
      ],
      "name": "initialize",
      "outputs": [],
      "stateMutability": "nonpayable",
      "type": "function"
    },
    {
      "inputs": [
        {
          "internalType": "uint256",
          "name": "_supportRequiredPct",
          "type": "uint256"
        }
      ],
      "name": "changeSupportRequiredPct",
      "outputs": [],
      "stateMutability": "nonpayable",
      "type": "function"
    },
    {
      "inputs": [
        {
          "internalType": "uint256",
          "name": "_minAcceptQuorumPct",
          "type": "uint256"
        }
      ],
      "name": "changeMinAcceptQuorumPct",
      "outputs": [],
      "stateMutability": "nonpayable",
      "type": "function"
    },
    {
      "inputs": [
        {
          "internalType": "bool",
          "name": "_castVote",
          "type": "bool"
        },
        {
          "internalType": "bool",
          "name": "_executesIfDecided",
          "type": "bool"
        }
      ],
      "name": "newVote",
      "outputs": [
        {
          "internalType": "uint256",
          "name": "voteId",
          "type": "uint256"
        }
      ],
      "stateMutability": "nonpayable",
      "type": "function"
    },
    {
      "inputs": [
        {
          "internalType": "uint256",
          "name": "_voteId",
          "type": "uint256"
        },
        {
          "internalType": "bool",
          "name": "_supports",
          "type": "bool"
        },
        {
          "internalType": "bool",
          "name": "_executesIfDecided",
          "type": "bool"
        }
      ],
      "name": "vote",
      "outputs": [],
      "stateMutability": "nonpayable",
      "type": "function"
    },
    {
      "inputs": [
        {
          "internalType": "uint256",
          "name": "_voteId",
          "type": "uint256"
        },
        {
          "internalType": "address",
          "name": "_voter",
          "type": "address"
        }
      ],
      "name": "canVote",
      "outputs": [
        {
          "internalType": "bool",
          "name": "",
          "type": "bool"
        }
      ],
      "stateMutability": "view",
      "type": "function"
    },
    {
      "inputs": [
        {
          "internalType": "uint256",
          "name": "_voteId",
          "type": "uint256"
        }
      ],
      "name": "getVote",
      "outputs": [
        {
          "internalType": "bool",
          "name": "open",
          "type": "bool"
        },
        {
          "internalType": "bool",
          "name": "executed",
          "type": "bool"
        },
        {
          "internalType": "uint256",
          "name": "startDate",
          "type": "uint256"
        },
        {
          "internalType": "uint256",
          "name": "snapshotBlock",
          "type": "uint256"
        },
        {
          "internalType": "uint256",
          "name": "supportRequired",
          "type": "uint256"
        },
        {
          "internalType": "uint256",
          "name": "minAcceptQuorum",
          "type": "uint256"
        },
        {
          "internalType": "uint256",
          "name": "yea",
          "type": "uint256"
        },
        {
          "internalType": "uint256",
          "name": "nay",
          "type": "uint256"
        }
      ],
      "stateMutability": "view",
      "type": "function"
    },
    {
      "inputs": [
        {
          "internalType": "uint256",
          "name": "_voteId",
          "type": "uint256"
        },
        {
          "internalType": "address",
          "name": "_voter",
          "type": "address"
        }
      ],
      "name": "getVoterState",
      "outputs": [
        {
          "internalType": "enum voting.VoterState",
          "name": "",
          "type": "uint8"
        }
      ],
      "stateMutability": "view",
      "type": "function"
    }
  ],
  "bytecode": "0x608060405234801561001057600080fd5b50610ca1806100206000396000f3fe608060405234801561001057600080fd5b50600436106100cf5760003560e01c8063bcf93dd61161008c578063de4f634711610066578063de4f634714610272578063df133bca1461027a578063fad167ab146102a7578063fc157cb4146102af576100cf565b8063bcf93dd614610222578063cdb2867b1461022a578063dc474b1a1461026a576100cf565b8063036e4220146100d457806344af596c146100f35780634b12311c146101105780635a55c1f01461016057806380d85911146101c0578063a648d7ab146101e9575b600080fd5b6100f1600480360360208110156100ea57600080fd5b50356102b7565b005b6100f16004803603602081101561010957600080fd5b5035610382565b61013c6004803603604081101561012657600080fd5b50803590602001356001600160a01b031661049b565b6040518082600281111561014c57fe5b60ff16815260200191505060405180910390f35b61017d6004803603602081101561017657600080fd5b5035610548565b6040805198151589529615156020890152878701959095526060870193909352608086019190915260a085015260c084015260e083015251908190036101000190f35b6100f1600480360360608110156101d657600080fd5b5080359060208101359060400135610632565b610210600480360360408110156101ff57600080fd5b508035151590602001351515610742565b60408051918252519081900360200190f35b610210610755565b6102566004803603604081101561024057600080fd5b50803590602001356001600160a01b031661075b565b604080519115158252519081900360200190f35b6102106107e9565b6102106107ef565b6100f16004803603606081101561029057600080fd5b5080359060208101351515906040013515156107f5565b610210610904565b61021061090a565b6000548111156040518060400160405280601981526020017f564f54494e475f4348414e47455f51554f52554d5f50435453000000000000008152509061037c5760405162461bcd60e51b81526004018080602001828103825283818151815260200191508051906020019080838360005b83811015610341578181015183820152602001610329565b50505050905090810190601f16801561036e5780820380516001836020036101000a031916815260200191505b509250505060405180910390fd5b50600155565b8060015411156040518060400160405280601a81526020017f564f54494e475f4348414e47455f535550504f52545f504354530000000000008152509061040a5760405162461bcd60e51b8152602060048201818152835160248401528351909283926044909101919085019080838360008315610341578181015183820152602001610329565b5060408051808201909152601a81527f564f54494e475f4348414e47455f535550505f544f4f5f4249470000000000006020820152670de0b6b3a764000082106104955760405162461bcd60e51b8152602060048201818152835160248401528351909283926044909101919085019080838360008315610341578181015183820152602001610329565b50600055565b60008260045481106040518060400160405280600e81526020016d564f54494e475f4e4f5f564f544560901b815250906105165760405162461bcd60e51b8152602060048201818152835160248401528351909283926044909101919085019080838360008315610341578181015183820152602001610329565b50505060009182526003602090815260408084206001600160a01b039390931684526007909201905290205460ff1690565b6000806000806000806000808860045481106040518060400160405280600e81526020016d564f54494e475f4e4f5f564f544560901b815250906105cd5760405162461bcd60e51b8152602060048201818152835160248401528351909283926044909101919085019080838360008315610341578181015183820152602001610329565b5060008a81526003602052604090206105e581610916565b99508060000160009054906101000a900460ff1698508060010154975080600201549650806003015495508060040154945080600501549350806006015492505050919395975091939597565b60408051808201909152601081526f564f54494e475f494e49545f5043545360801b6020820152838311156106a85760405162461bcd60e51b8152602060048201818152835160248401528351909283926044909101919085019080838360008315610341578181015183820152602001610329565b5060408051808201909152601b81527f564f54494e475f494e49545f535550504f52545f544f4f5f42494700000000006020820152670de0b6b3a764000084106107335760405162461bcd60e51b8152602060048201818152835160248401528351909283926044909101919085019080838360008315610341578181015183820152602001610329565b50600092909255600155600255565b600061074e8383610949565b9392505050565b60025481565b60008260045481106040518060400160405280600e81526020016d564f54494e475f4e4f5f564f544560901b815250906107d65760405162461bcd60e51b8152602060048201818152835160248401528351909283926044909101919085019080838360008315610341578181015183820152602001610329565b506107e184846109b6565b949350505050565b60015481565b60045481565b8260045481106040518060400160405280600e81526020016d564f54494e475f4e4f5f564f544560901b8152509061086e5760405162461bcd60e51b8152602060048201818152835160248401528351909283926044909101919085019080838360008315610341578181015183820152602001610329565b5061087984336109b6565b60405180604001604052806013815260200172564f54494e475f43414e5f4e4f545f564f544560681b815250906108f15760405162461bcd60e51b8152602060048201818152835160248401528351909283926044909101919085019080838360008315610341578181015183820152602001610329565b506108fe848433856109cd565b50505050565b60005481565b670de0b6b3a764000081565b60006109316002548360010154610b0790919063ffffffff16565b421080156109415750815460ff16155b90505b919050565b600480546001818101835560008281526003602081905260408220428185015560001943016002820181905592549181019190915591549382019390935590919084801561099c575061099c83336109b6565b156109ae576109ae83600133876109cd565b505092915050565b60008281526003602052604081206107e181610916565b60008481526003602090815260408083206001600160a01b0386168452600781019092529091205460ff166001816002811115610a0657fe5b1415610a2c576005820154610a2290600163ffffffff610b1616565b6005830155610a5c565b6002816002811115610a3a57fe5b1415610a5c576006820154610a5690600163ffffffff610b1616565b60068301555b8415610a82576005820154610a7890600163ffffffff610b0716565b6005830155610a9e565b6006820154610a9890600163ffffffff610b0716565b60068301555b84610aaa576002610aad565b60015b6001600160a01b03851660009081526007840160205260409020805460ff19166001836002811115610adb57fe5b0217905550828015610af15750610af186610b28565b15610aff57610aff86610bf3565b505050505050565b60008282018381101561074e57fe5b600082821115610b2257fe5b50900390565b6000818152600360205260408120805460ff1615610b4a576000915050610944565b610b5e816005015460048360030154610c0e565b15610b6d576001915050610944565b610b7681610916565b15610b85576000915050610944565b6000610ba282600601548360050154610b0790919063ffffffff16565b9050610bb78260050154828460030154610c0e565b610bc657600092505050610944565b610bda826005015460048460040154610c0e565b610be957600092505050610944565b5060019392505050565b6000908152600360205260409020805460ff19166001179055565b600082610c1d5750600061074e565b600083610c3886670de0b6b3a764000063ffffffff610c4b16565b81610c3f57fe5b04909210949350505050565b6000828202831580610c65575082848281610c6257fe5b04145b61074e57fefea2646970667358221220b12b7074752f0e9852fb3597a1f6558da68da0c735a6d7e5178eaa1fc3b6a7a464736f6c63430006060033",
  "source": "pragma solidity >=0.5.0 < 0.7.0;\r\n\r\nimport \"./SafeMath.sol\";\r\n\r\ncontract voting\r\n{\r\n\r\n\tstring private constant ERROR_NO_VOTE = \"VOTING_NO_VOTE\";\r\n    string private constant ERROR_INIT_PCTS = \"VOTING_INIT_PCTS\";\r\n    string private constant ERROR_CHANGE_SUPPORT_PCTS = \"VOTING_CHANGE_SUPPORT_PCTS\";\r\n    string private constant ERROR_CHANGE_QUORUM_PCTS = \"VOTING_CHANGE_QUORUM_PCTS\";\r\n    string private constant ERROR_INIT_SUPPORT_TOO_BIG = \"VOTING_INIT_SUPPORT_TOO_BIG\";\r\n    string private constant ERROR_CHANGE_SUPPORT_TOO_BIG = \"VOTING_CHANGE_SUPP_TOO_BIG\";\r\n    string private constant ERROR_CAN_NOT_VOTE = \"VOTING_CAN_NOT_VOTE\";\r\n    string private constant ERROR_CAN_NOT_EXECUTE = \"VOTING_CAN_NOT_EXECUTE\";\r\n    string private constant ERROR_CAN_NOT_FORWARD = \"VOTING_CAN_NOT_FORWARD\";\r\n    string private constant ERROR_NO_VOTING_POWER = \"VOTING_NO_VOTING_POWER\";\r\n\r\n\tenum VoterState { Absent, Yea, Nay }\r\n\r\n\tuint256 public constant PCT_BASE = 10 ** 18; // 0% = 0; 1% = 10^16; 100% = 10^18\r\n\r\n    using SafeMath for uint256;\r\n\r\n\tstruct Vote {\r\n        bool executed;\r\n        uint256 startDate;\r\n        uint256 snapshotBlock;\r\n        uint256 supportRequiredPct;\r\n        uint256 minAcceptQuorumPct;\r\n        uint256 yea;\r\n        uint256 nay;\r\n        mapping (address => VoterState) voters;\r\n    }\r\n\r\n    uint256 public supportRequiredPct;\r\n    uint256 public minAcceptQuorumPct;\r\n    uint256 public voteTime;\r\n\r\n    modifier voteExists(uint256 _voteId) {\r\n        require(_voteId < votesLength, ERROR_NO_VOTE);\r\n        _;\r\n    }\r\n\r\n    mapping (uint256 => Vote) internal votes;\r\n    uint256 public votesLength;\r\n\r\n    function initialize( uint256 _supportRequiredPct, uint256 _minAcceptQuorumPct, uint256 _voteTime) external {\r\n        require(_minAcceptQuorumPct <= _supportRequiredPct, ERROR_INIT_PCTS);\r\n        require(_supportRequiredPct < PCT_BASE, ERROR_INIT_SUPPORT_TOO_BIG);\r\n\r\n        supportRequiredPct = _supportRequiredPct;\r\n        minAcceptQuorumPct = _minAcceptQuorumPct;\r\n        voteTime = _voteTime;\r\n    }\r\n\r\n    function changeSupportRequiredPct(uint256 _supportRequiredPct)\r\n        external\r\n    {\r\n        require(minAcceptQuorumPct <= _supportRequiredPct, ERROR_CHANGE_SUPPORT_PCTS);\r\n        require(_supportRequiredPct < PCT_BASE, ERROR_CHANGE_SUPPORT_TOO_BIG);\r\n        supportRequiredPct = _supportRequiredPct;\r\n    }\r\n\r\n    function changeMinAcceptQuorumPct(uint256 _minAcceptQuorumPct)\r\n        external\r\n    {\r\n        require(_minAcceptQuorumPct <= supportRequiredPct, ERROR_CHANGE_QUORUM_PCTS);\r\n        minAcceptQuorumPct = _minAcceptQuorumPct;\r\n    }\r\n\r\n    function newVote(bool _castVote, bool _executesIfDecided)\r\n        external returns (uint256 voteId)\r\n    {\r\n        return _newVote(_castVote, _executesIfDecided);\r\n    }\r\n\r\n    function _newVote(bool _castVote, bool _executesIfDecided) internal returns (uint256 voteId) {\r\n        uint256 snapshotBlock = uint256(block.number - 1); // avoid double voting in this very block\r\n\r\n        voteId = votesLength++;\r\n\r\n        Vote storage vote_ = votes[voteId];\r\n        vote_.startDate = uint256(block.timestamp);\r\n        vote_.snapshotBlock = snapshotBlock;\r\n        vote_.supportRequiredPct = supportRequiredPct;\r\n        vote_.minAcceptQuorumPct = minAcceptQuorumPct;\r\n\r\n        if (_castVote && _canVote(voteId, msg.sender)) {\r\n            _vote(voteId, true, msg.sender, _executesIfDecided);\r\n        }\r\n    }\r\n\r\n    function vote(uint256 _voteId, bool _supports, bool _executesIfDecided) external voteExists(_voteId) {\r\n        require(_canVote(_voteId, msg.sender), ERROR_CAN_NOT_VOTE);\r\n        _vote(_voteId, _supports, msg.sender, _executesIfDecided);\r\n    }\r\n\r\n    function canVote(uint256 _voteId, address _voter) public view voteExists(_voteId) returns (bool) {\r\n        return _canVote(_voteId, _voter);\r\n    }\r\n\r\n    function getVote(uint256 _voteId)\r\n        public\r\n        view\r\n        voteExists(_voteId)\r\n        returns (\r\n            bool open,\r\n            bool executed,\r\n            uint256 startDate,\r\n            uint256 snapshotBlock,\r\n            uint256 supportRequired,\r\n            uint256 minAcceptQuorum,\r\n            uint256 yea,\r\n            uint256 nay\r\n        )\r\n    {\r\n        Vote storage vote_ = votes[_voteId];\r\n\r\n        open = _isVoteOpen(vote_);\r\n        executed = vote_.executed;\r\n        startDate = vote_.startDate;\r\n        snapshotBlock = vote_.snapshotBlock;\r\n        supportRequired = vote_.supportRequiredPct;\r\n        minAcceptQuorum = vote_.minAcceptQuorumPct;\r\n        yea = vote_.yea;\r\n        nay = vote_.nay;\r\n    }\r\n\r\n    function getVoterState(uint256 _voteId, address _voter) public view voteExists(_voteId) returns (VoterState) {\r\n        return votes[_voteId].voters[_voter];\r\n    }\r\n\r\n    function _vote(uint256 _voteId, bool _supports, address _voter, bool _executesIfDecided) internal {\r\n        Vote storage vote_ = votes[_voteId];\r\n\r\n        // This could re-enter, though we can assume the governance token is not malicious\r\n        VoterState state = vote_.voters[_voter];\r\n        // If voter had previously voted, decrease count\r\n        if (state == VoterState.Yea) {\r\n            vote_.yea = vote_.yea.sub(1);\r\n        } else if (state == VoterState.Nay) {\r\n            vote_.nay = vote_.nay.sub(1);\r\n        }\r\n\r\n        if (_supports) {\r\n            vote_.yea = vote_.yea.add(1);\r\n        } else {\r\n            vote_.nay = vote_.nay.add(1);\r\n        }\r\n\r\n        vote_.voters[_voter] = _supports ? VoterState.Yea : VoterState.Nay;\r\n\r\n        if (_executesIfDecided && _canExecute(_voteId)) {\r\n            // We've already checked if the vote can be executed with `_canExecute()`\r\n            _unsafeExecuteVote(_voteId);\r\n        }\r\n\r\n    }\r\n\r\n    function _canVote(uint256 _voteId, address _voter) internal view returns (bool) {\r\n        Vote storage vote_ = votes[_voteId];\r\n        return _isVoteOpen(vote_);\r\n    }\r\n\r\n    function _isVoteOpen(Vote storage vote_) internal view returns (bool) {\r\n        return uint256(block.timestamp) < vote_.startDate.add(voteTime) && !vote_.executed;\r\n    }\r\n\r\n    function _isValuePct(uint256 _value, uint256 _total, uint256 _pct) internal pure returns (bool) {\r\n        if (_total == 0) {\r\n            return false;\r\n        }\r\n\r\n        uint256 computedPct = _value.mul(PCT_BASE) / _total;\r\n        return computedPct > _pct;\r\n    }\r\n\r\n    function _canExecute(uint256 _voteId) internal view returns (bool) {\r\n        Vote storage vote_ = votes[_voteId];\r\n\r\n        if (vote_.executed) {\r\n            return false;\r\n        }\r\n\r\n        // Voting is already decided\r\n        if (_isValuePct(vote_.yea, 4, vote_.supportRequiredPct)) {\r\n            return true;\r\n        }\r\n\r\n        // Vote ended?\r\n        if (_isVoteOpen(vote_)) {\r\n            return false;\r\n        }\r\n        // Has enough support?\r\n        uint256 totalVotes = vote_.yea.add(vote_.nay);\r\n        if (!_isValuePct(vote_.yea, totalVotes, vote_.supportRequiredPct)) {\r\n            return false;\r\n        }\r\n        // Has min quorum?\r\n        if (!_isValuePct(vote_.yea, 4, vote_.minAcceptQuorumPct)) {\r\n            return false;\r\n        }\r\n\r\n        return true;\r\n    }\r\n\r\n    function _unsafeExecuteVote(uint256 _voteId) internal {\r\n        Vote storage vote_ = votes[_voteId];\r\n\r\n        vote_.executed = true;\r\n    }\r\n\r\n\r\n\r\n}",
  "sourcePath": "C:\\Users\\Mahe\\gitfunded-web\\GIPS\\GIP-002\\example\\contracts\\voting.sol",
  "compiler": {
    "name": "solc",
    "version": "0.6.6+commit.6c089d02.Emscripten.clang"
  },
  "schemaVersion": "3.0.23",
  "updatedAt": "2020-05-01T08:06:09.471Z",
  "devdoc": {
    "methods": {}
  },
  "userdoc": {
    "methods": {}
  }
}